:020000040000FA
:100000000030A0000030A1000030A2000030A300AA
:0C0010000030A400A40A0230A500102853
:04001C000034003478
:100020008316FF2390008312850107309900831601
:100030002830850000309F00C320C320831285191B
:10004000222826288312851A1D282A288312851A19
:100050002B282C28CE20E620FE203520A50B2D288D
:10006000322008000230A50008008316003081000D
:1000700001308B00810183123D280B1D3D28831226
:1000800050200130850604308B01A00AA01F3528BE
:100090000030A000A10A211D35280030A100080071
:1000A0000330A6000030A700A60B57280800A70FB2
:1000B000572852286220A50B5A285F2008000230DA
:1000C000A500080083160030810001308B008101FB
:1000D00083126A280B1D6A2883127D200130850651
:1000E00004308B01A00AA01F62280030A000A10AE2
:1000F000211D62280030A10008000030A600A60FD4
:100100007F2808008A20A50B82288720080002305B
:10011000A500080083160030810001308B008101AA
:1001200083129228FF3081000B1D94288312A72090
:100130000130850604308B01A00AA01F8A280030F8
:10014000A000A10A211D8A280030A1000800D53096
:10015000A600A60BA92808008510051605120800A0
:1001600085140516051208000515051108008312EF
:10017000B020AC20B020B020B020B020B020B02003
:10018000B420C3201D288312AC20AC20B020B020A6
:10019000B020B020B020B020B42008008312B020DE
:1001A000AC20AC20AC20AC20B020B020AC20B420DF
:1001B0002D20DB201D288312AC20AC20AC20AC20ED
:1001C000AC20B020B020AC20B42008008312B020B6
:1001D000B020AC20B020B020AC20B020B020B420A3
:1001E0005A20F3201D288312AC20B020AC20B02070
:1001F000B020AC20B020B020B42008008312B02082
:10020000B020AC20AC20B020B020B020B020B42072
:1002100082200B211D288312AC20B020AC20AC2002
:0E022000B020B020B020B020B4200800162975
:00000001FF
